:020000040800F2
:100000000000022095C60008E5C60008E5C6000805
:10001000E5C60008E5C60008E5C6000800000000C7
:10002000000000000000000000000000E5C600081D
:10003000E5C6000800000000E5C6000849B0000859
:10004000E5C60008E5C60008E5C60008E5C60008E4
:10005000E5C60008E5C6000805BD00080BBD0008A0
:1000600011BD000817BD00081DBD0008E5C6000849
:10007000E5C60008E5C60008E5C60008E5C60008B4
:10008000E5C60008E5C60008E5C600080000000057
:1000900000000000000000000000000023BD000878
:1000A000DDD3000855D30008F1D3000879D3000848
:1000B0008DD30008A1D30008B5D3000809C60008F5
:1000C00015C6000821C600082DC60008E5C60008B0
:1000D000E5C6000835BA00084DBA00080000000067
:1000E00039BD0008FDB20008E5C6000800000000A8
:1000F000000000000000000000000000E5C600084D
:1001000000000000E5C60008C9D30008E5C60008E5
:1001100000000000000000000000000000000000DF
:10012000E5C60008E5C60008E5C60008E5C6000803
:10013000E5C600080000000000000000000000000C
:10014000000000000000000000000000E5C60008FC
:10015000E5C60008E5C60008E5C6000865BA00085F
:1001600039C6000845C60008000000000000000075
:10017000000000000000000000000000000000007F
:1001800000000000E5C600080000000000000000BC
:08019000E5C60008E5C6000801
:1001A00010F8012B11F8013B012A28BF9A42F7D021
:1001B000D01A7047034613F8012B002AFBD1181AF6
:1001C000013870470000000000000000000000003F
:1001D00001F0FF01102A2BDB10F0070F08D010F8F8
:1001E000013B013A8B422DD010F0070F42B3F6D1FC
:1001F000F0B441EA012141EA014122F007047FF015
:1002000000070023F0E80256083C85EA010586EA6B
:10021000010685FA47F5A3FA87F586FA47F6A5FAA7
:1002200087F68EB9EED1F0BC01F0FF0102F00702B3
:1002300032B110F8013B013A83EA010313B1F8D15E
:100240000020704701387047002D06BF354603383F
:10025000073815F0010F07D1013015F4807F02BF78
:10026000013015F4C03F0130F0BC0138704700BFC9
:1002700081F0004102E000BF83F0004330B54FEA57
:1002800041044FEA430594EA050F08BF90EA020FC4
:100290001FBF54EA000C55EA020C7FEA645C7FEA57
:1002A000655C00F0E2804FEA5454D4EB5555B8BF7A
:1002B0006D420CDD2C4480EA020281EA030382EAEB
:1002C000000083EA010180EA020281EA0303362D7D
:1002D00088BF30BD11F0004F4FEA01314FF4801C50
:1002E0004CEA113102D0404261EB410113F0004F62
:1002F0004FEA03334CEA133302D0524263EB430319
:1003000094EA050F00F0A780A4F10104D5F1200EB6
:100310000DDB02FA0EFC22FA05F2801841F1000111
:1003200003FA0EF2801843FA05F359410EE0A5F1E5
:1003300020050EF1200E012A03FA0EFC28BF4CF016
:10034000020C43FA05F3C01851EBE37101F00045CC
:1003500007D54FF0000EDCF1000C7EEB00006EEBD9
:100360000101B1F5801F1BD3B1F5001F0CD3490863
:100370005FEA30004FEA3C0C04F101044FEA4452BA
:1003800012F5800F80F09A80BCF1004F08BF5FEA41
:10039000500C50F1000041EB045141EA050130BD21
:1003A0005FEA4C0C404141EB0101013C28BFB1F533
:1003B000801FE9D291F0000F04BF01460020B1FA7E
:1003C00081F308BF2033A3F10B03B3F120020CDA51
:1003D0000C3208DD02F1140CC2F10C0201FA0CF02F
:1003E00021FA02F10CE002F11402D8BFC2F1200C94
:1003F00001FA02F120FA0CFCDCBF41EA0C0190404A
:10040000E41AA2BF01EB0451294330BD6FEA040492
:100410001F3C1CDA0C340EDC04F11404C4F120027D
:1004200020FA04F001FA02F340EA030021FA04F38F
:1004300045EA030130BDC4F10C04C4F1200220FAE6
:1004400002F001FA04F340EA0300294630BD21FA24
:1004500004F0294630BD94F0000F83F4801306BFEA
:1004600081F480110134013D4EE77FEA645C18BFDE
:100470007FEA655C29D094EA050F08BF90EA020F75
:1004800005D054EA000C04BF1946104630BD91EA6D
:10049000030F1EBF0021002030BD5FEA545C05D170
:1004A0004000494128BF41F0004130BD14F58004AF
:1004B0003CBF01F5801130BD01F0004545F0FE4123
:1004C00041F470014FF0000030BD7FEA645C1ABF58
:1004D000194610467FEA655C1CBF0B46024650EA8F
:1004E000013406BF52EA033591EA030F41F40021BB
:1004F00030BD00BF90F0000F04BF0021704730B541
:100500004FF4806404F132044FF000054FF0000115
:1005100050E700BF90F0000F04BF0021704730B5D6
:100520004FF4806404F1320410F0004548BF4042AB
:100530004FF000013EE700BF42004FEAE2014FEA00
:1005400031014FEA02701FBF12F07F4393F07F4FDB
:1005500081F06051704732F07F4208BF704793F0DE
:100560007F4F04BF41F40021704730B54FF46074F1
:1005700001F0004521F000411CE700BF50EA0102F4
:1005800008BF704730B54FF000050AE050EA01029D
:1005900008BF704730B511F0004502D5404261EB0D
:1005A00041014FF4806404F132045FEA915C3FF44E
:1005B000D8AE4FF003025FEADC0C18BF03325FEAEB
:1005C000DC0C18BF033202EBDC02C2F1200300FA9C
:1005D00003FC20FA02F001FA03FE40EA0E0021FAC1
:1005E00002F11444BDE600BF70B54FF0FF0C4CF4AF
:1005F000E06C1CEA11541DBF1CEA135594EA0C0F61
:1006000095EA0C0F00F0DEF82C4481EA030621EA9B
:100610004C5123EA4C5350EA013518BF52EA0335D6
:1006200041F4801143F4801338D0A0FB02CE4FF088
:100630000005E1FB02E506F00042E0FB03E54FF0B8
:100640000006E1FB03569CF0000F18BF4EF0010EB0
:10065000A4F1FF04B6F5007F64F5407404D25FEAAC
:100660004E0E6D4146EB060642EAC62141EA55515F
:100670004FEAC52040EA5E504FEACE2EB4F1FD0CA1
:1006800088BFBCF5E06F1ED8BEF1004F08BF5FEA1F
:10069000500E50F1000041EB045170BD06F00046D1
:1006A00046EA010140EA020081EA0301B4EB5C047E
:1006B000C2BFD4EB0C0541EA045170BD41F4801176
:1006C0004FF0000E013C00F3AB8014F1360FDEBF9B
:1006D000002001F0004170BDC4F10004203C35DA77
:1006E0000C341BDC04F11404C4F1200500FA05F3FA
:1006F00020FA04F001FA05F240EA020001F000429B
:1007000021F0004110EBD37021FA04F642EB060110
:100710005EEA430E08BF20EAD37070BDC4F10C043A
:10072000C4F1200500FA04F320FA05F001FA04F2FE
:1007300040EA020001F0004110EBD37041F10001EA
:100740005EEA430E08BF20EAD37070BDC4F12005F5
:1007500000FA05F24EEA020E20FA04F301FA05F25D
:1007600043EA020321FA04F001F0004121FA04F205
:1007700020EA020000EBD3705EEA430E08BF20EAD5
:10078000D37070BD94F0000F0FD101F0004640000F
:1007900041EB010111F4801F08BF013CF7D041EA91
:1007A000060195F0000F18BF704703F00046520095
:1007B00043EB030313F4801F08BF013DF7D043EA66
:1007C0000603704794EA0C0F0CEA135518BF95EA1C
:1007D0000C0F0CD050EA410618BF52EA4306D1D1A3
:1007E00081EA030101F000414FF0000070BD50EAC2
:1007F000410606BF1046194652EA430619D094EA4C
:100800000C0F02D150EA013613D195EA0C0F05D135
:1008100052EA03361CBF104619460AD181EA030189
:1008200001F0004141F0FE4141F470014FF0000041
:1008300070BD41F0FE4141F4780170BD70B54FF0DC
:10084000FF0C4CF4E06C1CEA11541DBF1CEA13555C
:1008500094EA0C0F95EA0C0F00F0A7F8A4EB05043E
:1008600081EA030E52EA03354FEA013100F0888035
:100870004FEA03334FF0805545EA131343EA1263FE
:100880004FEA022245EA111545EA10654FEA0026B3
:100890000EF000419D4208BF964244F1FD0404F56C
:1008A000407402D25B084FEA3202B61A65EB0305C8
:1008B0005B084FEA32024FF480104FF4002CB6EB85
:1008C000020E75EB030E22BFB61A754640EA0C0005
:1008D0005B084FEA3202B6EB020E75EB030E22BF45
:1008E000B61A754640EA5C005B084FEA3202B6EB86
:1008F000020E75EB030E22BFB61A754640EA9C0045
:100900005B084FEA3202B6EB020E75EB030E22BF14
:10091000B61A754640EADC0055EA060E18D04FEAD2
:10092000051545EA16754FEA06164FEAC30343EA72
:1009300052734FEAC2025FEA1C1CC0D111F4801F3F
:100940000BD141EA00014FF000004FF0004CB6E738
:1009500011F4801F04BF01430020B4F1FD0C88BFD7
:10096000BCF5E06F3FF6AFAEB5EB030C04BFB6EBE2
:10097000020C5FEA500C50F1000041EB045170BDD5
:100980000EF0004E4EEA113114EB5C04C2BFD4EB02
:100990000C0541EA045170BD41F480114FF0000E86
:1009A000013C90E645EA060E8DE60CEA135594EA02
:1009B0000C0F08BF95EA0C0F3FF43BAF94EA0C0F05
:1009C0000AD150EA01347FF434AF95EA0C0F7FF47A
:1009D00025AF104619462CE795EA0C0F06D152EACE
:1009E00003353FF4FDAE1046194622E750EA4106B2
:1009F00018BF52EA43067FF4C5AE50EA41047FF4C3
:100A00000DAF52EA43057FF4EBAE12E74FF0FF3C27
:100A100006E000BF4FF0010C02E000BF4FF0010CF8
:100A20004DF804CD4FEA410C7FEA6C5C4FEA430C71
:100A300018BF7FEA6C5C1BD001B050EA410C0CBFC0
:100A400052EA430C91EA030F02BF90EA020F002022
:100A5000704710F1000F91EA030F58BF994208BF89
:100A600090422CBFD8176FEAE37040F00100704746
:100A70004FEA410C7FEA6C5C02D150EA013C07D19D
:100A80004FEA430C7FEA6C5CD6D152EA033CD3D0E8
:100A90005DF8040B704700BF8446104662468C46E2
:100AA0001946634600E000BF01B5FFF7B7FF002815
:100AB00048BF10F1000F01BD4DF808EDFFF7F4FF3E
:100AC0000CBF012000205DF808FB00BF4DF808EDC9
:100AD000FFF7EAFF34BF012000205DF808FB00BFEC
:100AE0004DF808EDFFF7E0FF94BF012000205DF80E
:100AF00008FB00BF4DF808EDFFF7CEFF94BF0120C3
:100B000000205DF808FB00BF4DF808EDFFF7C4FFBB
:100B100034BF012000205DF808FB00BF4FEA410C04
:100B20007FEA6C5C02D150EA013C0AD14FEA430CE7
:100B30007FEA6C5C02D152EA033C02D14FF0000024
:100B400070474FF0010070474FEA410212F5001262
:100B500015D211D56FF47873B3EB625212D94FEA04
:100B6000C12343F0004343EA505311F0004F23FAEE
:100B700002F018BF404270474FF00000704750EA43
:100B8000013005D111F0004008BF6FF00040704700
:100B90004FF00000704700BF4A0011D212F500125A
:100BA00011D20DD56FF47873B3EB62520ED44FEAC5
:100BB000C12343F0004343EA505323FA02F0704745
:100BC0004FF00000704750EA013002D14FF0FF3083
:100BD00070474FF00000704753B94AB9002908BF69
:100BE00000281CBF4FF0FF314FF0FF3000F00CB871
:100BF000ADF1080C6DE904CE0DF0B6FBDDF804E0B4
:100C0000DDE9022304B07047704700BF10B5054C02
:100C1000237833B9044B13B10448AFF300800123A8
:100C2000237010BDC000002000000000D4E60008C2
:100C300008B5034B1BB103490348AFF3008008BD5F
:100C400000000000C4000020D4E60008003918BFEE
:100C50000121017070470378022B10B5044609D1B9
:100C60000BF044FE6368C01A41F28733984284BF98
:100C70000123237010BD0000024B00221A705A603D
:100C8000704700BFDC00002010B583704FF0FF33C9
:100C900043600023C37083600123017042700373BB
:100CA00010BD0078704740787047806870470246F2
:100CB000007B28B19078D378834234BF0020012094
:100CC000704743688B420BD0C37882784160013310
:100CD000DBB29342C37081BF8368C270013383600B
:100CE00070474FF0FF3343600023C3708360704749
:100CF000012303737047002303737047007B704721
:100D0000884294BF002001207047034608461146E0
:100D1000184738B500250323044619460570456079
:100D20000B220830FFF7B0FF032319460C2204F111
:100D30001800FFF7A9FF01230D22032104F1280069
:100D4000FFF7A2FF032319460E2204F13800FFF734
:100D50009BFF03231946282204F14800FFF794FF64
:100D600003231946292204F15800FFF78DFF0323BE
:100D700019462A2204F16800FFF786FF032319466B
:100D80002B2204F17800FFF77FFF032319462C2262
:100D900004F18800FFF778FF032319462D2204F1A0
:100DA0009800FFF771FF032319462E2204F1A800D3
:100DB000FFF76AFF01231122032104F1B800FFF7B6
:100DC00063FF01231522022104F1C800FFF75CFF35
:100DD00002231946162204F1D800FFF755FF02231B
:100DE0001946172204F1E800FFF74EFF02231946C7
:100DF000182204F1F800FFF747FF012319461F22CC
:100E000004F58470FFF740FF032319462F2204F5F1
:100E10008C70FFF739FF03231946302204F59470D4
:100E2000FFF732FF01233122032104F59C70FFF705
:100E30002BFF03236B22022104F5A470FFF724FF8C
:100E4000012384F88C31A4F88251A4F8845184F8E9
:100E50008651C4F8885104F5AC7304F26D1203F89E
:100E6000015B9342FBD104F5C172002103F8011B21
:100E70009342FBD1204638BDF8B590F88C3104463A
:100E8000D3B1002380F88C3101212C200BF0D0FC51
:100E90000BF02CFD04F10806606004F5AC7504F25B
:100EA0006D173046FFF703FF05F8010BBD4206F151
:100EB0001006F6D100F050FD94F88C110920BDE821
:100EC000F84081F0010106F03FBB2DE9F0470546EF
:100ED0008AB00E4691461F4600F1080400F5AC7A30
:100EE0002046FFF7E4FE80462046FFF707FF78B173
:100EF0002046FFF7D8FEB0420AD120464946FFF708
:100F0000E0FE2046FFF7D3FE30B90AB0BDE8F08717
:100F100010345445E4D1F8E705F26D13002213F8BC
:100F2000011BB14203D051BB2A4482F86D61B8F174
:100F3000000FEAD1B5F9841195F88621D5F88831EA
:100F40000991204608920793B5F88281FFF7ABFE1E
:100F500005462046FFF7A5FE06462046FFF7A5FEFC
:100F60000590129809990095CDE903700120CDE90B
:100F70000160DDE90732404606F066F9C5E7013257
:100F8000152ACCD1D3E710B5002104462C200BF054
:100F90004FFC0023636004F5AC7204F26D1102F89B
:100FA000013B8A42FBD1012384F88C310021BDE84A
:100FB0001040092006F0C8BA2DE9F04F89B04FF073
:100FC000000800F26D1304460D4600F1080B00F511
:100FD000AC790193474646465846FFF768FE82467D
:100FE00000284FD01FB95846FFF75BFE064658460B
:100FF000FFF759FE08ABDA19013702F8180C94F81C
:101000008C21FFB232B999F800201AB92046FFF7B7
:10101000BAFFD046019B09F101094B450BF1100BBA
:10102000DAD10BF063FC94F88C3143B9636833B1C7
:10103000C01A344B984202D92046FFF7A4FF1E2263
:10104000B5FBF2F302FB13531BB9394602A804F0B7
:10105000CDF9032E1DD12378032B02D1B8F1000F57
:1010600004D094F88C310BB100F00AFD6423B5FB79
:10107000F3F103FB1151322907D1012141200BF07B
:10108000D7FB04E089F80000C4E70029F6D000216E
:1010900018E0022E20D12378022B02D1B8F1000FE4
:1010A00004D094F88C310BB100F0EBFC002141200E
:1010B0000BF0BEFB6423B5FBF3F103FB1155322D9E
:1010C00004D101212B200BF0B3FB01E0002DDED079
:1010D000267009B0BDE8F08F012E0FD12378012BC7
:1010E00002D1B8F1000F04D094F88C310BB100F0AC
:1010F000C9FC002141200BF09BFBE2E700F0C4FC9F
:101100000021BBE7BFD4010080F88631009BA0F826
:101110008211A0F88421C0F88831704784B02DE98D
:10112000F84309AC84E80E0000F26D1300F5C172BB
:10113000002103F8011B9342FBD100F1080800F5E0
:10114000AC75464630461036FFF7D5FDAE42F9D1B4
:10115000152614F8019BB9F1000F08D04746384610
:10116000FFF7A1FD81450AD13846FFF7C1FD013ED9
:1011700016F0FF06EDD1BDE8F84304B07047103714
:10118000AF42ECD1F3E770B506780D46044614F88B
:10119000012C31462846FFF7B8FD20B114F8013C78
:1011A00004F80139F3E7267070BD88422DE9F84351
:1011B00004460F4690461DD0451CBD421AD02E460F
:1011C000227816F8011B4046FFF79FFD68B12A1BE5
:1011D00016F8019C05D0C2F10100214628440CF00C
:1011E0003FFB84F800903546E7E741462846FFF785
:1011F000CAFFF8E7BDE8F8832DE9F84F1F46531EF4
:1012000003EBD373DDF828900546884616464FEA6F
:10121000630A0C46A24513DD631C05EB430215F877
:10122000131012F8012C48464FEA430BFFF76DFDEF
:1012300008B10BF1FF3B15F80B302B555C46E9E785
:10124000F3070DD4B21E02EBD272B4EB620F07D1DA
:10125000631C5A0005EB430313F8013C2B55541E45
:10126000661E06EBD6767610A04505EB040A0EDA6C
:10127000A95D3A464846FFF748FD40B1AB5D8AF8A4
:101280000030731E03EBD37334465E10ECE78AF82C
:101290000070BDE8F88F2DE9F04F044685B00D468B
:1012A00091461E4600F1010AA5EB0408B8F1100FA3
:1012B0001CDDB9F1000F1CD1A8F102014F10E35D54
:1012C0000096424639462046FFF796FF0FB1013F90
:1012D000F5E715F8013D22782A702F1B00963A4653
:1012E00000212046FFF788FF012FF2DC05B0BDE8A2
:1012F000F08F4FEA6808617814F808203046FFF74D
:1013000004FD09F1FF3915F8012CD0B114F80810CB
:101310003046FFF7FAFC30B1237814F80820227029
:1013200004F8083016E015F8012C61783046FFF714
:10133000ECFC237858B115F8012C227005F8013C1B
:1013400008E061783046FFF7E0FC20B3237862784C
:1013500022706370D3462F46D846227818F8011BB6
:101360003046FFF7D2FC38BB7B1E1F4621783A7807
:10137000013B3046CDE90233FFF7C7FC029B002852
:10138000F3D15F4512D8294633464A465846FFF7FF
:1013900082FF5D4688E715F8012C14F808103046E6
:1013A000FFF7B3FC23780028B7D0C4E718F8013C56
:1013B0003A7808F8012C3B70C346CDE72DE9F0439D
:1013C00004468BB00E4600F1080500F5AC782846BF
:1013D000FFF76DFC07462846FFF765FCB04263D176
:1013E0002846FFF77EFC2846FFF761FC03460028ED
:1013F00053D104F26D12104612F8011BB1424FD1C5
:10140000234404F5C178A8EB0006002283F86D217F
:10141000B6FA86F2C2F11F02254B079052004146F0
:10142000FFF739FF102E07980FDD04F27D16204AD2
:10143000DFF87C903146FFF7B8FEB04509D0304662
:101440004946FFF7A0FE0136F7E7194A4146FFF784
:10145000ACFE17B3B4F9841194F88621D4F888311E
:101460000991284608920793B4F88271FFF71BFC94
:1014700004462846FFF715FC06462846FFF715FCEC
:1014800005900020CDE90300CDE90160DDE90732D8
:1014900009990094384605F0D7FE0BB0BDE8F083FB
:1014A0000133152BA8D1D4E7103545458FD1F4E78A
:1014B000010D00080148FFF72CBC00BFE40000202C
:1014C00010B537200BF044F90D4C0E49226880B25C
:1014D00041F8220001320023132A88BF1A462260F5
:1014E0001A46013251F8040BD2B2142A0344F8D13F
:1014F00005490B60B3FBF2F3044A136010BD00BF53
:10150000D002002078020020CC0200200000002041
:1015100010B5022140200BF031F902210A200BF016
:101520002DF90C200BF0F2F8084A14230021013B9E
:1015300013F0FF0342F8041BF9D11424013CFFF718
:10154000BFFF14F0FF04F9D110BD00BF78020020E6
:1015500073B504460A200BF099F9324E324DB0FAB9
:1015600080F04009307040200BF090F9B0FA80F321
:101570005B092B7033783BB300282FD02B4B2C48C2
:101580001B680093224640F6FA531F21FFF79DFC8B
:10159000284B01221A702B78002B39D1234B1B6862
:1015A000B3F5406F21D80093214840F6014322460D
:1015B0001521FFF78AFC2B78DBB11D480D2102B005
:1015C000BDE87040FFF7FABE184B1B6840F6F952B1
:1015D0009342D3D940F606629342DCD914481F21C6
:1015E000FFF7ECFE134B0022D4E740F60D42934286
:1015F0000ED80E4B1B68B3F53B6F0ED800930C480A
:1016000040F6B13322460D21FFF75FFC02B070BDFA
:1016100007481521FFF7D2FECDE740F6BD329342D1
:10162000CBD8F3E7D4020020740200200000002091
:10163000E4000020C802002007B50190FFF740FF3A
:10164000019803B05DF804EBFFF782BF00000000D3
:1016500008B5094B1868FEF74DFF05A3D3E9002331
:10166000FEF7C2FFFFF798FA08BD00BFAFF3008096
:101670005B7F5FE4E4CC7E3F0000002000000000C0
:1016800008B5094B1868FEF735FF05A3D3E9002319
:10169000FEF7AAFFFFF780FA08BD00BFAFF3008096
:1016A0007F9B6AD21210E83F00000020044B1868AC
:1016B00040F6632398428CBF00200120704700BF92
:1016C00000000020024B187880F00100704700BF36
:1016D000C8020020014B1878704700BFD4020020D8
:1016E00010B5C380002383600123016082800373EF
:1016F00004460BF0FBF82061204610BD73B5C3888B
:1017000081880446052200680BF04EFC002140F25F
:101710009E7300934FF4E1624FF47A730846256894
:10172000A6880BF0DBFF81230246314628460BF0EA
:10173000B1FD206802B0BDE870400BF065BB38B564
:10174000A1F596739BB240F2DC52934204460D46DB
:101750000DD843898B420AD00BF0CAF82389206147
:10176000B3F5967F38BF4FF496736581238138BDFA
:10177000A1F59673F7B59BB240F2DC529342044652
:101780000D461CD8037B13B903898B4215D040F258
:101790009E7300934FF4E1624FF47A730021284660
:1017A0002668A7880BF09AFF812302463946304607
:1017B0000BF070FD00232581237303B0F0BD0649B3
:1017C00006480BF0C6FE05480A22294603B0BDE8CC
:1017D000F0400BF018BF00BF56E9000818110020B8
:1017E00038B504460BF084F86189238999420AD9F7
:1017F00022694FF47A75821AB2FBF5F213449BB258
:10180000994228BF194620612046BDE83840FFF7BD
:10181000AFBF000030B50489184D91FBF5F0B4F569
:10182000E16F40F2191303FB00F24FF4FA734FF02B
:10183000C80091FBF0F091FBF3F118BF40F2BF2319
:1018400001FB00F118BF63434FF4507000FB01F03F
:101850000FBF02F2BF234FF4E161B3FBF1F39B181A
:1018600090FBF5F01844002805DB40F2BF239842B6
:10187000A8BF184630BD0020FCE700BF6079FEFF1E
:10188000008970474089704773B540F29E7300210C
:1018900005688688009304464FF47A734FF4E1623A
:1018A00008460BF01BFF81230246314628460BF009
:1018B000F1FC0023A3600123237302B070BD036811
:1018C0001847012A03D0022A03D000207047016084
:1018D000FBE70B680360F8E730B5A82085B00BF094
:1018E00019FF184C184905460BF0EEFB256000F077
:1018F0001BF9256828460BF03DFC42F21071B0FB45
:10190000F1F128460BF0A1FA2068002201210BF02A
:101910007FFC0122114620684FF0FF330BF09AFA4A
:101920000A4B00930A4B039320680A4B02936946C3
:101930000BF08AFD029B1BB16946032208469847BB
:1019400005B030BDFC020020000C0040F119000879
:10195000BF180008C3180008104B1B7813B5D3B18B
:101960000F4B1A78BAB90F4C0192012120681970F7
:1019700011460BF06FFC0C4B019A1A6000F0D4F882
:101980002068019A09490BF043FC206802B0BDE8C9
:1019900010400BF039BA02B010BD00BFF8020020B1
:1019A00000030020FC020020F4020020804F1200FF
:1019B00010B50B4C0022206811460BF04BFC094B74
:1019C000206800221A70084B1A60084B1B6859687F
:1019D0000BF01EFC2068BDE810400BF015BA00BFEC
:1019E000FC02002000030020F4020020EC02002092
:1019F000F8B51C4B1B781BB1BDE8F840FFF7D8BF0A
:101A0000194C1A4E22681A4F5AB91A4B1B7843B90F
:101A1000337833B138680BF033F9BDE8F84000F0A3
:101A200083B8154D296851F82220012A16D100F0FB
:101A300075F82368296838680133002251F82310AB
:101A40000BF0E6FB0D4A236811680233B3FBF1F299
:101A500001FB1233236001233370F8BD00F064F8FA
:101A6000E7E700BF00030020F4020020F00200209E
:101A7000FC020020F8020020EC02002004000020FC
:101A8000704770477047704708B5054B00221A70C1
:101A900000F04AF8034B1868BDE808400BF0F0B8B6
:101AA000F8020020FC02002070B5184C1849B4F967
:101AB0002C00184E09F0E4FB15490546B4F92C003A
:101AC00009F002FCC0F3C4303060A8200BF022FE05
:101AD00029460446104D0BF0F7FA31682C601623A6
:101AE000204605220BF060FA28680122FA210BF04B
:101AF0008FFB3168286881237D220BF0CBFBBDE88A
:101B00007040002116200AF093BE00BFB4F8000810
:101B100070F600080803002004030020014B186839
:101B20000BF072B90403002008B5054B18680BF0E0
:101B3000A7F8BDE80840002116200AF079BE00BFD2
:101B4000040300202DE9F04781460AF0CFFE054648
:101B50002148224F224EDFF89880224CDFF878A0EF
:101B600003F0CDF938601C4803F0C9F90023306058
:101B70001D48C8F80030236003F0ADFA1A4803F09E
:101B800063FB1A4803F0A4FA184803F05DFBADB2FA
:101B90000AF0ACFE401B48451BD20AF0A7FE2368A2
:101BA000401B9842F4D9504603F0A9F9D8F8003008
:101BB0000344C8F800303B688342D4BF3B603860C0
:101BC00033688342ACBF33603060236801332360E5
:101BD000DEE7BDE8F08700BF4C09002014030020B9
:101BE00010030020180300208C0900207409002035
:101BF0001C03002008B500F06FFFBDE8084064201A
:101C00000AF078BE2DE9F84FDFF8A8A1DFF8A89117
:101C100057469AF80040002C40F0B28001254FF45E
:101C20007A700AF067FE03F0B9FB89F80050FFF7FD
:101C30002AFF294621200AF0FBFD29462C200AF024
:101C4000F7FD294641200AF0F3FD29462B200AF032
:101C5000EFFD4FF47A70FFF775FF214621200AF05F
:101C6000E7FD21462C200AF0E3FD214641200AF041
:101C7000DFFD21462B200AF0DBFD4FF47A70FFF7E1
:101C800061FF03F063FC4FF4FA60FFF75BFF03F0C2
:101C900085FB3C4B1C681CB13B4B1B6893FBF4F46D
:101CA0003A493B483B4D3C4E0BF053FC21463848EB
:101CB0000A220BF0B2FC296830680B1A092B01DCF0
:101CC000272C23DD354C4FF0000887F8008003F007
:101CD000FBFBFFF7D5FEC4F80080DFF8E0804FF48F
:101CE0007A7B98F80030002B42D12368643323605C
:101CF000B3FBFBF20BFB12332BB928683368C01A15
:101D000080B205F023FEFFF775FFEAE701233B7081
:101D1000234B1C6002F056F92249234E1C4D044609
:101D20001B480BF016FC21460A2219481F4C0BF0E9
:101D300074FC02F06FF9314628460BF019FC20467E
:101D400003F0C6F9204603F07FFA4FF47A700AF0E8
:101D5000D1FD174928460BF00BFC204603F0BBF9D8
:101D6000204603F071FA4FF47A700AF0C3FDE2E7FF
:101D70003B78002BCED189F8003088F8003048E756
:101D8000BDE8F88F180300201C0300206EE900084E
:101D9000181100201003002014030020200300204D
:101DA0004C0900207EE9000897E900088C09002012
:101DB0009CE900080D0300200C03002024030020F0
:101DC000014B1878704700BF2C0300200F4A13887E
:101DD000013B9BB20BB1138070470D490D484FF486
:101DE0007A7313800A6803689B1A02680A600A49BA
:101DF0008B4228BF0B461A4664235343074AB3FB62
:101E0000F1F3C3F16403DBB21370704708000020E4
:101E100028030020300300205F0F7F002C030020E8
:101E2000FFF7D4BF074B10B50360074B0022A82073
:101E30001A600BF06FFC054904460BF045F9044BA2
:101E40001C6010BD3A1840A264030020004001400D
:101E5000E00300200068024BC31A58425841704703
:101E60003A1840A2F8B5264D064626480C4606F01C
:101E70001BFA2A6832BB2CBB21462248224606F0B8
:101E80002DFA21491F481F4F0BF063FB1D4801220B
:101E9000002106F023FA00240125335D0A2B06D128
:101EA0000135EAB20021384606F018FA0134315DF6
:101EB00039B1032D05DC384601340BF04EFB3D2CC7
:101EC000EBDDF8BD002211460E4806F007FA0F4977
:101ED0000C480BF03EFB29680A480A220BF0A7FBCE
:101EE00034B10F210748002206F0F8F90849C9E784
:101EF00012210448224606F0F1F90649C2E700BF64
:101F0000DC030020B4090020A2E90008ABE90008C6
:101F1000B7E9000827EB0008F7B59F4E9F4D3368DF
:101F20002A6801330132642033602A60B3FBF0F287
:101F300000FB123323B99A4B9A481978FFF792FFA6
:101F40003168994C4FF4FA72B1FBF2F302FB1313B0
:101F50002BB9964B964A1978207805F0A9FD31687F
:101F60000A22B1FBF2F302FB13130BB903F014FCCA
:101F70000020FFF761FB2378002B32D18D4989487F
:101F80000BF086FD8C4B1B7823B917200AF07EFCE2
:101F9000012817D117200AF079FC0128FAD0FFF7A1
:101FA00099FB20B901232370804A13700AE0834A09
:101FB000834813680133136000232B6002232370CE
:101FC00001F020FA25787F4C2278AA4206D07E497B
:101FD00077480BF05DFD784B00221A70257003B036
:101FE000F0BD012B06D16E4A784913706D480BF095
:101FF0004FFDE7E7022B18D175496A480BF048FD01
:102000006D4B1B7823B917200AF040FC0128D9D169
:1020100017200AF03BFC0128FAD0684A1368013304
:10202000136000232B6003232AE0032B3ED1694871
:10203000694E40F20771FFF79BFBFFF721FB2A680F
:10204000306041F287339A4216D86425634A90FB88
:10205000F5F305FB13000090294652480BF0E4FC11
:1020600031685F4A91FBF5F305FB131500953C21A0
:102070004F480BF0D9FCA5E7FFF724FB10B105236F
:1020800023709FE7326840F697039A4205DC0423E9
:102090002370464B01221A7094E7484A4D48136852
:1020A00001331360FFF7F0FB0623E9E7042B0CD1A3
:1020B0003B4B494E01221A703268642592FBF5F3BE
:1020C00005FB13220092474AC6E7052B20D1FFF7F4
:1020D000D7FA414F444A3860642690FBF6F306FB7A
:1020E0001300314600902F480BF09EFC396891FB9D
:1020F000F6F306FB13163A4A2D4800963C210BF0E6
:1021000093FCFFF7DFFA00287FF45CAF28608AE7D2
:10211000062B29D1FFF7B4FA2F4E344A30606425DC
:1021200090FBF5F305FB1300294600901D480BF0CA
:102130007BFC316891FBF5F305FB1315284A1C481D
:1021400000953C210BF070FCFFF7BCFA00283FF42F
:1021500039AFFFF7E3FC194A1E48136801331360D7
:10216000FFF792FB07238BE7072B43D120490D484C
:102170000BF08EFC104B1B783BB1FFF7D5FC0F4AE0
:1021800013680233136009237AE72A200AF07EFBE2
:1021900001287FF417AFF0E7640300206C030020F0
:1021A000680300207003002020040020D5030020D5
:1021B000E4030020BCE90008D6030020DC03002073
:1021C00070050020340400209BF20008D9E90008C3
:1021D00017EA0008D8020020600300203AEA00084D
:1021E00052EA000866EA000896EA0008BBEA00081E
:1021F000DCEA0008082B40F0938028200AF046FB18
:10220000B04DB14E012804BF01232B60B6F9003058
:10221000012B61D120200AF039FB012808BF68603A
:1022200010200AF033FB012808BFA8601E200AF026
:102230002DFB012800D1E860338801331BB2042B49
:1022400008BF01233380B6F900104B1E5942594193
:102250003D200AF0EDFAB6F900108A1E51425141B4
:102260003E200AF0E5FAB6F90010C81E414241418D
:1022700022200AF0DDFA17200AF008FB012808BF27
:1022800068622A200AF002FB012808BFA8628D4B71
:1022900000252E4653F8042B01350B2D1644F9D199
:1022A0008A4A8B480095334664210BF0BDFB894A6E
:1022B0008948009533463C210BF0B6FB0B2E7FF48A
:1022C00081AE864A13680133136017200AF0DEFAE4
:1022D00001287FF458AFF8E7022B12D120200AF032
:1022E000D5FA012808BF286110200AF0CFFA01288A
:1022F00008BF68611E200AF0C9FA01289CD1A861B4
:102300009AE7032B98D120200AF0C0FA012808BFD1
:10231000E86110200AF0BAFA012808BF28628BE7AA
:10232000092B0DD16E496A480BF0B2FB6D4B1B783F
:10233000002B3FF447AE0A23237000232B6041E6B5
:102340000A2B15D1684962480BF0A2FB654B1B783C
:102350002BB917200AF09AFA01287FF433AE172020
:102360000AF094FA0128FAD000232B600B2387E6A9
:102370000B2B3AD15D485E4E02F0ADFE5B4802F099
:1023800063FF5C4802F0A4FE5A4802F05DFF5A4821
:1023900002F0B5FD40F2FE6130605848FFF7E8F901
:1023A0003368574A4A4864210BF03EFB3368554A6C
:1023B00049483C210BF038FB326840F28A239A42AC
:1023C00007DD464A00232B601368013313600C239A
:1023D00056E62A6844F620639A427FF6F3AD4A4AED
:1023E000012313700D222270DEE50D2B04D143482A
:1023F000FFF74AFA4549F9E50C2B18D13D4802F0A0
:102400006AFE3C4802F020FF384802F064FE37487C
:1024100002F01AFF3E492E480BF03AFB2B68B3F549
:102420007A7F7FF6CFAD00232B600E2328E60E2B9C
:1024300037D132482E4EFFF727FA2E4802F04BFED6
:102440002C4802F001FF294802F045FE274802F01F
:10245000FBFE294802F053FD2E4A306003466421FA
:102460001B480BF0E1FA3368264A1B483C210BF06D
:10247000DBFA2A6842F210739A427FF6A3AD00237A
:102480002B603368B3F5C87F06DD10232370134A31
:1024900013680133136095E51B4A012313700F2263
:1024A000A1E70F2B3AD1124D1B4A2B680848642133
:1024B0000BF0BAFA2B68134A07483C210BF0B4FA28
:1024C00080E500BF340300200A00002001EB000873
:1024D000700300202AEB0008E4030020DC03002046
:1024E0003BEB0008D603002060EB000874090020D5
:1024F000300400208C0900204C090020D802002064
:1025000084EB0008A8EB000868030020BBEB000880
:10251000DAEB0008ECEB000809EC0008102B34D1D2
:10252000A848A94E02F0D4FDA64802F08DFEA748A7
:1025300002F0D1FDA54802F087FEA54802F0DFFCBD
:10254000A44A306003466421A3480BF06DFA336857
:10255000A24AA3483C210BF067FA3368132B07DC2F
:10256000A04A00232B60136801331360122387E510
:102570002A6842F210739A427FF624AD9A4A0023E9
:102580002B600123137011222DE7112B01D19749E4
:102590002CE5122B19D196498F480BF079FA954BFF
:1025A0001B782BB917200AF071F901287FF40AADC6
:1025B00017200AF06BF90128FAD08A4A00232B6011
:1025C00013680133136013235AE5132B38D140F2FB
:1025D000FE6189487C4EFFF7CBF87C4802F07BFD1A
:1025E0007A4802F031FE774802F075FD754802F036
:1025F0002BFE774802F083FC804A3060034664215A
:1026000075480BF011FA3368744A75483C210BF099
:102610000BFA3368642B06DD724A152323701368A6
:102620000133136089E62A6844F620639A427FF6F4
:10263000C9AC6D4A00232B60012313701422D2E62B
:10264000142B04D16C48FFF71FF96D49CEE4152B0C
:102650001CD16948FFF718F96A495F480BF018FA6E
:10266000644B1B782BB917200AF010F901287FF46E
:10267000A9AC17200AF00AF90128FAD0594A002318
:102680002B601368013313601623F9E4162B79D1FC
:1026900040F2FE6158484B4E5B4FFFF769F84B48DC
:1026A00002F016FD494802F0CFFD3389F188194444
:1026B0004908304602F012FD304602F0C5FD44489C
:1026C000414E02F01CFC306001F07CFC3860009050
:1026D00033684E4A404864210BF0A6F93B680093EA
:1026E00033684B4A3E483C210BF09EF92A6842F27F
:1026F00010739A422ED9474B30681A68464E824270
:10270000B8BF02461A60454B19688842A8BF084600
:102710001860396833688B42B8BF0B463360404E4F
:102720003768121AB942A8BF3946282A316006DD37
:10273000172222703B4A0120107000222A605B1A87
:1027400041F27C52934205DD18232370354B012260
:102750001A70F2E52A684EF660239A427FF632AC90
:102760002C4B2E4A1B6812689B1A272B2D4B06DC1C
:102770001922227002221A7000232B6087E617228A
:102780002270E4E7172B53D11B48244E214DFFF74D
:102790007BF80E4802F09CFC0C4802F055FD0948FD
:1027A00002F096FC074802F04FFD336800932B6857
:1027B0001D4A094864210BF037F9336800932B68F0
:1027C0001A4A54E474090020300400208C090020C7
:1027D0004C0900202AEC000870030020A8EB000838
:1027E000E4030020DC030020680300204CEC000818
:1027F00068EC0008D6030020D80200208CEC00080A
:10280000A7EC0008B9EC000824040020DEEC000866
:1028100004ED00082C0400202804002010000020F3
:102820000C000020D503002025ED000856ED00081F
:10283000182B1ED159485A4E5A4DFFF725F85A48C1
:1028400002F046FC584802F0FFFC584802F040FCF9
:10285000564802F0F9FC336800932B68544A5548F7
:1028600064210BF0E1F8336800932B68524AFFF7BC
:10287000FEBB192B26D14948FFF706F84A4802F05B
:1028800027FC494802F0E0FC484802F021FC474898
:1028900002F0DAFC494947480BF0FAF8484B1B783C
:1028A0002BB9172009F0F2FF01287FF48BAB17201A
:1028B00009F0ECFF0128FAD0424B00221A60424B8B
:1028C0001A2232E01A2B35D13448404E404DFEF7E3
:1028D000DBFF354802F0FCFB334802F0B5FC33481F
:1028E00002F0F6FB314802F0AFFC336800932B682E
:1028F000384A304864210BF097F8336800932B680E
:10290000354A36483C210BF08FF82D4B1B782BB9FC
:10291000172009F0BBFF01287FF454AB172009F002
:10292000B5FF0128FAD0284B1B221A702C4B02222B
:10293000FFF7B1BB1B2B7FF445AB1848184E194D60
:10294000FEF7A2FF184802F0C3FB174802F07CFC18
:10295000164802F0BDFB154802F076FC3368009380
:102960002B68204A134864210BF05EF8336800930B
:102970002B68114A19483C210BF056F8104B1B7874
:102980002BB9172009F082FF01287FF41BAB172019
:1029900009F07CFF012892D1F9E700BFD80200209E
:1029A0000C000020280400208C090020740900205D
:1029B0007BED000870030020A4ED0008C5ED0008C1
:1029C000D60300206C03002020040020100000200B
:1029D0002C04002004EE000856ED0008E40300205B
:1029E000D50300202BEE0008014B01221A7070471E
:1029F000D603002030B52F4C256885B028460AF054
:102A0000B9FB42F21071B0FBF1F1284601390AF02E
:102A10001CFA206800220A210AF0FAFB0122114662
:102A200020684FF0FF330AF015FA234B0093234B35
:102A300003932068224B029369460AF005FD029B2E
:102A40001BB1694603220846984720680AF0DCF962
:102A50001C4802F040FB1B4802F0F6FB1A4802F04B
:102A60003AFB194802F0F0FB01213D2009F086FEF7
:102A700001213E2009F082FE0121222009F07EFE84
:102A800000213D2009F0D4FE00213E2009F0D0FEB7
:102A90000021222009F0CCFE0021202009F06EFE4A
:102AA0000021102009F06AFE00211E2009F066FEB8
:102AB00005B030BDE0030020191F0008BF18000852
:102AC000C3180008740900208C090020014B002263
:102AD0001A607047D80300207047000010B500232B
:102AE0001A462821084809F095F900231A461721AB
:102AF000064809F08FF90023BDE8104004481A4643
:102B00002A2109F087B900BF08050020A004002091
:102B100038040020D0F8F03002689A4235BF002314
:102B2000012380F8183180F8183134BFB0F928300B
:102B3000B0F94030C0F82431704710B50446406EFB
:102B400003689B689847B4F9F420B4F922309342A3
:102B500004DA22EAE2736384A28403E0B4F9243045
:102B60009342F9DCD4F8F0302168143B99420BD938
:102B7000D4E90C1012B2D317891843EB0000238F4D
:102B8000C4E90C100133238710BD70B50446406EB4
:102B90000368DB689847B4F9281104F5957004F5CB
:102BA0009E760A460B4630F9025BA942A8BF294629
:102BB000AA42B8BF2A462B4486421BB2F3D1521A0E
:102BC000042A15DCB4F9F420B4F94010521A1D326D
:102BD0003A2A0DD8092B4FF00102D8BF002384F800
:102BE0004620C4BF0A2293FBF2F3A4F8443070BD20
:102BF00094F84630002BFAD1B4F9F43023EAE373A9
:102C0000F3E7A0F8F4107047C0F820117047016096
:102C100070470000054B994207D0D0F8FC30C0F84F
:102C2000F8108B42D8BFC0F8FC1070473F420F002D
:102C3000054B994207D0D0F80431C0F800118B42FF
:102C4000D8BFC0F8041170473F420F00024B9942B1
:102C500018BFC0F80C1170473F420F00024B994259
:102C600018BFC0F8E81070473F420F00B0F9981045
:102C70008388C16341F27072B2FBF3F2044BA0F897
:102C8000EC204B43034AB3FBF2F3C0F8F03070473B
:102C900040420F00809698004FF014134FF032120C
:102CA00070B543600264836403654FF00A124FF00D
:102CB0001E13C0E91523494B494EC0E91733494B50
:102CC0004FF0C811C0E9223149F64043C0E924332E
:102CD000454B40F6B832C0E9263244F62063002561
:102CE000C0E92933C0E92B22C0E92D33C0F8A02068
:102CF00010234FF47A72C0E93E55C0E94055C0E94F
:102D0000425580F81851056080F84D5080F84E50BB
:102D1000C0E92F33C0E935224FF4FA62C0E9372207
:102D20001823324A8667C0E93133C823C0E93333F8
:102D3000C0E93925C0E907532D4A02674FF448031B
:102D4000C0E909312B4A2C4EC667142383602B4EF1
:102D5000426742F21073C0E91922C0F88060C0F8DF
:102D6000203100220023022680F88460A0F8105150
:102D7000A0F84450A0F88650A0F8F450C0F82451B0
:102D8000C0F81C51C0F84051A0F84451C0E90C23D0
:102D90007D23C0F81431C0E95255C562058780F81B
:102DA0004C5080F8465080F84F50C5630446FFF7FA
:102DB0005DFFA0F83C5100F5947300F59E7223F876
:102DC000025B9342FBD1A288A5614EF660232046A8
:102DD000B3FBF2F3C4E90333636170BDC800E803D9
:102DE000100E00209001900120032003F401F40153
:102DF0003C080020B8070020C0080020640D002017
:102E000030B504460025C0F8E850524952488BB00E
:102E10000AF0AEFBD4F81C31A5850133C4F81C318F
:102E2000E388A380B4F84230A4F84030638D238552
:102E300094F84E3084F84D30B4F84A30A4F8483055
:102E4000B4F85230A4F85030B4F88A30A4F888307E
:102E5000B4F88E30A4F88C30B4F85630A4F854305E
:102E6000B4F85A30A4F85830236EE365D4F894309F
:102E7000C4F89030B4F89A30658484F84C5084F8E3
:102E8000465084F84F50A4F89830D4F8A030C4F8D5
:102E90009C30D4F8A830C4F8A430D4F8B030C4F8CA
:102EA000AC30D4F8B830C4F8B430D4F8C030C4F87A
:102EB000BC30D4F8C830C4F8C430D4F8D830C4F822
:102EC000D430D4F8D030C4F8CC30D4F8E030C4F8E2
:102ED000DC30B4F8E630A4F8E430D4E919308342A9
:102EE00014D0036860661B689847616E0B6804AD78
:102EF0005B69284698470AAA12E907006B4603C394
:102F00001A7095E80E001548FEF708F92046FFF7FD
:102F1000ADFE04F5947204F59E71002322F8023B85
:102F20009142FBD100200021C4E90C01D4F8042116
:102F3000606EA4F83C31C4E94132C4F84031A4F8D1
:102F400044312387C4F8FC3003685B680BB0BDE8EC
:102F50003040184749EE000818110020E400002016
:102F6000B0F9E430B0F9F42064339A4213B5044662
:102F70001DDD114802F0AFF8104802F0A9F8B4F9CD
:102F8000E430B4F9F42000920D48D4F81C216433E5
:102F90001121FDF79AFF084802F056F9074802F0A0
:102FA00053F9084802B0BDE81040FEF719BC0448C8
:102FB0001121FEF703FAEEE78C09002074090020C6
:102FC000E4000020D80200202DE9F0438BB0044635
:102FD000FFF7A0FDD0F84031B0F9F4201344C0F859
:102FE0004031B0F844310133A0F84431B0F83C31FD
:102FF00003F1940101339BB2092B88BF002320F811
:103000001120A0F83C3190F81831002B63D0012B2F
:1030100068D0D4F81C31B4F8F42021683348009308
:1030200094F81831FEF770F8B4F9F4103048314BC9
:1030300094F818219B7890F802902F48089221EA82
:10304000E17109910793B4F80080FEF719FC642739
:10305000B0FBF7F0C7B2FEF7FBFAD4F8F8500999C5
:10306000CDF80090092DC4BF0A2695FBF6F5D4F8DB
:103070000061D8BF0025092ED4BF00264FF00A0CEE
:10308000C0B2C8BF96FBFCF62DB236B2DDE90732FE
:10309000CDE90170CDE90356404603F06FFB2046B1
:1030A000FFF75EFFD4F8F03022680A339A420FD956
:1030B00094F84F3063B9012384F84F30D4F80C31C1
:1030C0004FF6FE72934288BF4FF0FF33A4F886306C
:1030D0000BB0BDE8F083FFF730FDB4F8F430A4F88E
:1030E000103196E7FFF751FD93E700BFE4000020A1
:1030F000740900208C090020D8020020B0F9283083
:10310000F7B5044603EB8301B0F92C0009016425EF
:1031100091FBF5F109B2884207DBC3EB0312D20041
:1031200092FBF5F212B2904264DDB4F9F420AA48A1
:1031300000920C21D4F81C21FDF7C7FEB4F9F4303D
:103140000093D4F81C21B4F92830A3481621FDF7C8
:10315000BCFEB4F84421D4F84031B3FBF2F31BB207
:10316000142B50DCB4F9F430D4F81C219A480093A5
:103170000B211423FDF7A9FEB4F9F4300093D4F821
:103180001C21954814231821FDF79FFEB4F8402018
:10319000B4F94400B4F94030A2F1140109B28842F4
:1031A00003DB143212B2904236DDB4F9F4208A48BF
:1031B00000920E21D4F81C21FDF787FEB4F9F430FB
:1031C0000093D4F81C21B4F9403083481721FDF74F
:1031D0007CFEB4F98630A2685A43D4F89C309342FE
:1031E00023DD00927C48D4F81C212821FDF76DFED8
:1031F000292126E078480C21FEF7E0F876481621D0
:10320000FEF7DCF8A5E774480B21FEF7D7F8724803
:103210001821FEF7D3F8B9E76F480E21FEF7CEF874
:103220006D481721FEF7CAF8D3E7D4F8A4309342CB
:103230001BDA00922921D4F81C216748FDF745FECE
:1032400028216548FEF7BAF8D4F8E830A2685A4356
:10325000D4F8AC3093420DDD00925F48D4F81C21C5
:103260002A21FDF732FE2B2112E05B482821FEF7D0
:10327000A5F8BDE7D4F8B43093421ADA00922B21B6
:10328000D4F8A430D4F81C215348FDF71EFE2A219F
:103290005148FEF793F8A268D4F8BC309A420DDA90
:1032A00000924D48D4F81C212C21FDF70EFE2D2153
:1032B00010E049482A21FEF781F8D4E7D4F8C43059
:1032C0009A4219DD00922D21D4F81C214248FDF7C5
:1032D000FCFD2C214048FEF771F8B4F98620D4F8A3
:1032E000CC309A420DDA00923B48D4F81C212F21B1
:1032F000FDF7EBFD302110E037482C21FEF75EF89A
:10330000D5E7D4F8D4309A424FDD00923021D4F87A
:103310001C213148FDF7D9FD2F212F48FEF74EF82B
:10332000D4F80C31D4F8E8209A1AA3685343D4F89F
:10333000DC209A423EDA0093D4F81C21D4F8E03025
:1033400025482E21FDF7C1FDB4F9E430B4F922205F
:103350009A4234DDB4F9F42000921F48D4F81C21BD
:103360003121FDF7B2FDD4F8FC00D4F80851FDF787
:10337000D1F81A4B0022FDF761FA06460F4628469F
:10338000FDF7C8F832463B46FDF7A0FBE0B13946F1
:103390003046FDF701FCD4F81C21009503466B2153
:1033A0000D48FDF792FD03B0F0BD0B482F21FEF74D
:1033B00005F89FE708482E21FEF700F8C4E7064805
:1033C0003121FDF7FBFFCEE703486B2103B0BDE8D9
:1033D000F040FDF7F3BF00BFE40000200000044010
:1033E00010B50446054801F073FE054801F070FE73
:1033F0002046BDE81040FFF7B3BD00BF8C09002098
:103400007409002030B5124D12498BB0044628468D
:103410000AF0AEF8104928460AF0AAF82046FFF74D
:10342000DFFF606E03681B689847616E0B6804AC31
:1034300020465B6998470AAA12E907006B4603C356
:103440001A7094E80E000548FDF768FE0BB030BD19
:103450001811002060EE000864EE0008E40000206F
:103460002DE9F04F0446B5B0C08C564F02F036FD42
:103470008046608D02F032FD3390B4F8420002F0D5
:103480002DFDA379319394F8523032901F9397F821
:103490008C0194F84E30209394F84A30219380F0B8
:1034A00001032F93FEF78CFC94F88430229394F858
:1034B0005630239394F85A302493B4F8603025930F
:1034C000B4F86230D4F8A050309026934FF47A705C
:1034D00095FBF0F5EBB22793D4F8A85095FBF0F5E7
:1034E000EBB22893D4F8B05095FBF0F5EBB22993EA
:1034F000D4F8B85095FBF0F5EBB22A9394F8C030AD
:103500002B9394F8C8302C93B4F88A302D93B4F8E8
:10351000D030B4F8D890B4F88EA0B4F89AB0D4F8FB
:10352000E0502E930A2695FBF6F5D4F8946096FBAE
:10353000F0F6FEF7A5F8B4F8E6C0CDF870C094F840
:103540004CC12E9BCDF86CC094F8484111932D9B33
:1035500010932C9B0F932B9B0E932A9B0D93299BCF
:103560000C93289B0B93279B1A940A93ADB2269B2E
:103570000993F6B246F2726407F26D1780B2CDE994
:1035800016B0CDE91456CDE9129A19941897259BD7
:103590000893249B0793239B0693229B0593309BC0
:1035A00004932F9B0393219B0293209B01931F9BCA
:1035B00000933399DDE93132404602F069FD35B0C0
:1035C000BDE8F08FE400002038B504462C480D46D5
:1035D000FEF75AF92046FFF743FF2046FFF700FFAA
:1035E000E561284C0C212046FDF7E8FE20460B2122
:1035F000FDF7E4FE20460E21FDF7E0FE20462821DF
:10360000FDF7DCFE20462921FDF7D8FE20462A21C1
:10361000FDF7D4FE20462B21FDF7D0FE20462C21BD
:10362000FDF7CCFE20462D21FDF7C8FE20462E21B9
:10363000FDF7C4FE20461621FDF7C0FE20461721E7
:10364000FDF7BCFE20461121FDF7B8FE20461821EB
:10365000FDF7B4FE20462F21FDF7B0FE20463021B5
:10366000FDF7ACFE20463121FDF7A8FE20466B2178
:10367000FDF7A4FEBDE838400021212009F0D8B8AC
:10368000D8020020E40000202DE9F04F0446C1B02C
:10369000D0F81C81C08CDFF8A0B102F01FFC81467D
:1036A000608D02F01BFC3F90B4F8420002F016FC63
:1036B000A3792493638C2593E38D2693B4F8443047
:1036C0002793B4F88630289394F85230299394F8CD
:1036D0004E302A9394F84A302B93237A2C939BF8FC
:1036E0008C3183F0010382463C93FEF769FB94F82A
:1036F00084302D9394F856302E9394F85A302F93AB
:10370000B4F860303093B4F8623031934FF47A718A
:10371000D4F8A03093FBF1F3DBB23293D4F8A830A5
:1037200093FBF1F3DBB23393D4F8B03093FBF1F3B6
:10373000DBB23493D4F8B83093FBF1F3DBB23E93B1
:1037400094F8C030359394F8C8303693B4F88A3082
:103750003793B4F8D0303893B4F8D8303993B4F8FC
:103760008E30D4F8E0603D903A93D4F89470B4F879
:103770009A30D4F8F0503B9397FBF1F70A2096FB70
:10378000F0F6FDF77DFFB4F8E610239194F84C11A4
:103790003B9B2291FFB294F848412194CDE91C73E0
:1037A0003A9B1A93399B1993389B1893379B17931D
:1037B000369B1693359B15933E9B149305EB85051D
:1037C000349B13936D00339B1293B6B2329B1B96BE
:1037D000ADB246F2726480B2CDE91E5020941193CE
:1037E000319B1093309B0F932F9B0E932E9B0D9329
:1037F0002D9B0C933D9B0B933C9B0A932C9B099315
:103800002B9B08932A9B0793299B0693289B059340
:103810000BF26D130493279B0393269B0293259B26
:103820000193249B009349463F9A5346404603F038
:10383000F1F841B0BDE8F08FE400002010B5044677
:103840008369E26900EB830001338A1A022BC260AC
:1038500088BF0023A361D4E9033213446269E161A4
:10386000134403F52F3202F21F32B2FBF3F3B4F923
:103870003820A360B4F9303093FBF2F323EAE3730A
:10388000A3852046FFF73AFCA38DE3852046FFF78A
:10389000FBFE606E0368BDE810401B69184790F896
:1038A0008430013B042B06D8C9B280F8841000EBA9
:1038B0008101CB6E836690F88410012003F044BE32
:1038C000042905D80523C380C188042003F03CBE29
:1038D000232901D92323F6E7C180F5E7B1F5967FC7
:1038E00008DD4FF49673A0F84230B0F84210032080
:1038F00003F02ABE002901DA0023F4E7A0F8421001
:10390000F3E7B1F5C87F0ADD4FF4C8734385418DF5
:1039100001F19603A0F8E630022003F015BE31292C
:1039200001DC3223F2E74185F1E73C2907D93C234A
:10393000A0F85230B0F85210052003F005BE092956
:1039400001D80A23F4E7A0F85210F3E701299CBF3D
:1039500001F0010180F84E1090F84E10062003F09F
:10396000F3BD642928BF6421A0F84A10072003F0A2
:10397000EBBD642998BFA0F85610B0F856100A2085
:1039800003F0E2BD642998BFA0F85A10B0F85A10AD
:103990000B2003F0D9BDA1F164039BB240F6543271
:1039A000934298BFA0F86010B0F860100C2003F0AC
:1039B000CBBDA1F1C803B3F5965F98BFA0F8621024
:1039C000B0F862100D2003F0BFBD14299EBF4FF464
:1039D0007A735943C0F8A010D0F8A0104FF47A734E
:1039E0000E2091FBF3F189B203F0AEBD4B1E272BE5
:1039F0009EBF4FF47A735943C0F8A810D0F8A810AE
:103A00004FF47A730F2091FBF3F189B203F09CBD60
:103A100014299EBF4FF47A735943C0F8B010D0F800
:103A2000B0104FF47A73102091FBF3F189B203F0D8
:103A30008BBD4B1E272B9EBF4FF47A735943C0F8A2
:103A4000B810D0F8B8104FF47A73112091FBF3F14D
:103A500089B203F079BD4B1F142B98BFC0F8C0107A
:103A6000B0F8C010122003F06FBDA1F10F03142BAA
:103A700098BFC0F8C810B0F8C810132003F064BD98
:103A8000A1F132039BB240F29E72934298BFA0F81C
:103A90008A10B0F88A10142003F056BDB1F57A7F71
:103AA00098BFC0F8D010B0F8D010152003F04CBD6E
:103AB000A1F132039BB240F29E72934298BFC0F8CC
:103AC000D810B0F8D810162003F03EBDB1F5FA6F4B
:103AD00098BFA0F88E10B0F88E10172003F034BDF8
:103AE00042F21073994204BF054BC0F8E030D0F8A1
:103AF000E0100A23182091FBF3F189B203F024BDF2
:103B0000A08601004FF47A73594310B4A1F59C527A
:103B1000074C083AA24298BFC0F89410D0F894100D
:103B20005DF8044B91FBF3F1192089B203F00CBD51
:103B3000F8240100A1F1C803B3F52F6F98BFA0F8D6
:103B40009A10B0F89A101A2003F0FEBCA1F13203CB
:103B50009BB240F28A22934298BFA0F8E610B0F8D8
:103B6000E6101E2003F0F0BCD0F84821D0F84C112C
:103B700030B5524342F2107300293CD117214A4319
:103B80000A21B2FBF3F3C3EBC303B3FBF1F201FB76
:103B900012329B1A3222A0F842201422C280AC2298
:103BA0005A434FF47A7192FBF1F292B202F1320170
:103BB00041858188A0F88A3003FB01F4A4F2DC552A
:103BC00004F2DC54C0F8A840C0F8B8400C1D043919
:103BD000C0F8C010C832A3F164016433C0F8A0502B
:103BE000C0F8B050C0F8C840C0F8D010C0F8D83005
:103BF000A0F8E62030BD1521C1E7000008B5A1F10D
:103C00001E039BB2DD2B28BFAA21C0F848111C203F
:103C100089B203F099FCBDE808400148FFF7A4BF52
:103C20007005002008B58BB2022B28BF0021C0F818
:103C30004C111D2089B203F087FCBDE80840014803
:103C4000FFF792BF700500200148FFF725B800BFBD
:103C50007005002010B50A4CE188B4F8860001F028
:103C6000A3FBB4F84220618DE08C01F017FD054BF9
:103C70001B78012B03D1BDE8104001F0F1BC10BD51
:103C800070050020D80600202DE9F047914E92489B
:103C9000924D04F05FFA336891480133336001F0CC
:103CA0002EF901B22846FEF7ACFF31680A22B1FBBB
:103CB000F2F302FB13138BB9D5F81C01FDF7BCFC22
:103CC00001F06AFDFDF7F2FC18B142F2107008F045
:103CD00011FE844B84481968FDF76EF93268834BF6
:103CE000534343F2EC72B2EB731F07D38049814810
:103CF00009F03EFC01F052FB01F072FB31684FF419
:103D00009672B1FBF2F302FB131313B97A48FFF773
:103D1000A1FF31684FF47A72B1FBF2F302FB131387
:103D200013B9764801F0E8FA754C237853B96B481B
:103D3000FFF768FB7048FFF78DFF01F091FC01234E
:103D400023702AE0012B2DD131686422B1FBF2F3FC
:103D500002FB13133BB908F0C9FD01465F48FFF7AA
:103D600033FC01F07DFC31680A22B1FBF2F302FB67
:103D700013131BB95B4A136801331360614E30465D
:103D8000FCF769FF337843B102232370D5F848313B
:103D90001BB95248AA21FFF731FF5B4B22781A70FA
:103DA000BDE8F087022B16D14C48FFF729F808F040
:103DB0009DFD564B186008F099FD554B1860494B16
:103DC00000221A6001200323237000F053F9012020
:103DD00000F05AF9E1E7032B5FD108F087FD4B4B68
:103DE000DFF82CA11B68DFF8FC800A22C31AB3FBA2
:103DF000F2F3DAF80020C8F80030821A0A2A0746DF
:103E000005D9B5F8EC2093420FD30523237095F81C
:103E10004C300BB1042323703A4D2846FCF71BFFAE
:103E20002B78002BB9D100238AE708F061FD064604
:103E300000F0C8F88146002000F01CF90146274830
:103E4000FEF704FF49462548DFF8C890FEF7E2FE7A
:103E500000F0CCF801462148FEF7EAFE002000F011
:103E600013F901461D48FEF7F9FED9F800101B486A
:103E7000711AFEF7C9FED8F800101848C9F800609A
:103E8000FEF7C5FE1548FFF79FF8D8F80030CAF8CE
:103E900000700133C8F80030B9E7042B05D1194B85
:103EA0001B78002BBFD005234AE7052B7FF475AFA5
:103EB00008F01CFD01460948FFF7C0FCB5F8442096
:103EC000A98D688C01F012FC0E4B1B78002BAAD038
:103ED000022335E7C0060020BC0E0020700500203C
:103EE0004C090020DC060020E40000205FF7435965
:103EF00079EE000818110020D0060020A409002047
:103F0000D8060020DC000020D9060020CC060020C6
:103F1000C4060020C80600207FB51F4B1F4C012699
:103F200000220670A8201A6009F0F4FB1C4905461F
:103F300009F0CAF82846256009F01CF942F2107110
:103F4000B0FBF1F12846013908F07FFF206800221C
:103F50000A2109F05DF920680022062109F040F8E5
:103F600020684FF0FF333246314608F073FF0D4BA7
:103F700000930D4B039320680C4B0293694609F0A4
:103F800063FA029B1BB169460322084698472068E2
:103F900008F03AFF04B070BDC0060020D40600202F
:103FA00000400140893C0008BF180008C318000801
:103FB000014B00221A707047D00600200368C9B276
:103FC0001B681847054B1B782BB9054B1868054B28
:103FD0001B68C01A70470448704700BFF8060020ED
:103FE00004070020000700203F420F00054B1B780C
:103FF0002BB9054B1868054B1B68C01A704704485D
:10400000704700BFF8060020F4060020F0060020EC
:104010003F420F0038B5134B134D002201244FF4DB
:10402000C9701A802C7008F065FC2A7802F0FF0332
:10403000A2B90E481A4650F823100133282B0A441F
:10404000F9D192FBF3F303F51C520F3244F61E61D3
:104050008A4205D8064A0020136038BD2046FCE796
:104060000220FAE7A8070020AA070020080700207E
:104070000007002010B1024B00221A60014870476F
:10408000FC0600203F420F0010B1024B00221A60D4
:1040900001487047EC0600203F420F00F0B5634B2B
:1040A000634D85B0002601213A201E6008F066FBB2
:1040B00001213A2008F0BCFB642008F01BFCA8207A
:1040C00009F028FB5B49044608F0FEFF20462C60FF
:1040D00009F050F842F21071B0FBF1F120460139BD
:1040E00008F0B3FE28683246642109F091F80122F5
:1040F000114628684FF0FF3308F0ACFE4E4B00939A
:104100004E4B039328684E4B0293694609F09CF985
:10411000029B1BB169460322084698472868494C10
:104120000022032108F05CFF474B00219A8BDB8BB8
:10413000A4F880202046A4F8823007F067FF4021D1
:10414000204607F078FF20212046FFF737FF0021A7
:104150002046FFF733FF204608F03CF806460520CE
:1041600008F0C8FB4021204607F065FF31212046BA
:10417000FFF724FFAE212046FFF720FF204608F07E
:1041800029F8062206444021204608F01EF8062899
:1041900018BF013616BB204607F06AFE070220460C
:1041A00007F066FE38430702204607F061FE20460E
:1041B00007F05EFE38430702204607F059FE07432A
:1041C0002046224C07F054FE21492248276009F07E
:1041D000C0F921681F480A2209F038FA0A2008F0BD
:1041E00089FB18481C4C402107F025FF1021154879
:1041F000FFF7E4FE00211348FFF7E0FE114807F047
:10420000E9FF06440F4807F005FF642008F072FB41
:1042100026B101232370114B0D221A60286808F083
:10422000F3FD207880F0010005B0F0BDFC06002011
:10423000E40600200044014061420008BF18000865
:10424000C318000834100020B4F80008B407002098
:104250008EEE000818110020F8060020140000203F
:10426000F8B5564B1B884BF20B029BB2934238D0E9
:10427000534C237803F0FF07002B47D15148524E8F
:10428000394607F0C3FE022240214E4807F09DFF49
:1042900005464C4807F0ECFD70704A4807F0E8FD11
:1042A0003070484807F0B6FE3288A2F5004303227A
:1042B00093FBF2F202EBC302444B022D1A6011D0C1
:1042C000434A138801339BB20C2B138001D8237807
:1042D0003BB1012323703F4B0D221A603E4B3F4AF6
:1042E0001A60F8BD3E4A196811601A68B2F5FA7F83
:1042F00003DC1A6812F5FA7FF3DA3A4A1B68106891
:10430000354A11681B1A0B441360EAE7314D2B68DC
:104310000D2B1AD12B4807F060FF2A4807F07AFED0
:1043200000213A2008F084FA01210E2008F026FA34
:1043300001210F2008F022FA00210F2008F078FA5E
:1043400000BF00210E2008F073FA2B68013B082BF8
:104350002B600BD101213A2008F06AFA00210E20CF
:1043600008F00CFA00210F2008F008FA2E68002E41
:10437000B7D114482670314607F048FE1148402155
:1043800007F059FE10210F48FFF718FE0D4831467F
:10439000FFF714FE0B4807F01DFF08B92778FFB29E
:1043A0000B4B0848277000221A8007F033FE237851
:1043B000002B96D00D232B6093E700BFE006002072
:1043C000F806002034100020B0070020AC070020C1
:1043D000E806002014000020FC06002000CA9A3BDA
:1043E000040700200007002010B5064B024603F129
:1043F000140153F8044B42F8044B8B42F9D11B785B
:10440000137010BDECE6000810B5034C204600F018
:104410008DF8024B236010BDB8070020B4EE0008F1
:1044200010B500F05BFA134BB3F9282103F5947033
:104430000A2130F9024B0139A242B8BF224611F0DD
:10444000FF01F6D1D3F8F01018684631814210D23E
:10445000B3F94810B3F9F400521A904203DAB3F9F1
:104460002220642A02DC4942884202DA012283F8CF
:104470004C2010BD7005002010B5064B024603F11C
:10448000140153F8044B42F8044B8B42F9D11B78CA
:10449000137010BD01E700084FF46173038170478A
:1044A0001E49D1F8F02010B582801D4A1289C261E0
:1044B0001C4A0023128902620446B1F9422083712A
:1044C00003618361B1F92800811A6165121A40F213
:1044D0000111A182626204F1280104F150000B6312
:1044E00041F8042B8842FAD1E168238900290BDBCB
:1044F000194489B20C48FDF722F90B48FDF7C2F9BF
:1045000000232081E36010BD494289B2994201D263
:10451000591AEEE74FF49671ECE700BF70050020E2
:104520008C09002074090020D8020020124B03607F
:10453000124B134A1B89C361124BD2F8F0201B891E
:104540000362002382808371C0F88030036500F12C
:10455000280200F15001136342F8043B8A42FAD169
:104560004FF46172028140F20112C0E903334365E6
:1045700082828361436270472CEF00088C0900201F
:10458000700500207409002070B52C4EB6F9223059
:10459000142B044630DD8188D6F8F0001E254543F3
:1045A0006422B5FBF2F5A9421AD20B290CD9358D3C
:1045B0005B1B1BB20F2B0FDD14256843B0FBF2F21F
:1045C000914201D3192B07DD6FF063031C49E360AF
:1045D0001C4808F0CDFF0FE000231B49E360F7E71C
:1045E00028234343B3FBF2F3994210D217491548ED
:1045F00008F0BEFF0023E3601549124808F0A9FF48
:10460000A1881048BDE870400A2208F0FCBF32259E
:1046100005FB00F3B3FBF2F3994203D219230D49D2
:10462000E360D5E73C234343B3FBF2F3994235BF44
:1046300009490A49E560E260CAE700BF7005002049
:10464000CCEE000818110020D8EE0008E1EE0008BA
:104650000DEF0008EBEE0008F6EE000801EF000891
:10466000FFF792BFF0B504468A1A3C48D4F8801090
:10467000B0F806C0068901F1160001F101014CBF36
:10468000C82532250929C8BF002144F82020002769
:10469000C4F8801004F1800004F1580151F804EBD3
:1046A00088427744FAD1132A4FF00A0197FBF1F7B9
:1046B000617D39DC81B1E0694FF47A7E801BACEB1F
:1046C00006010EFB00F090FBF1F040F6C4115143DF
:1046D00091FBFEF1401A20610021617555436B4347
:1046E0001F4D93FBF5F523691D441E4B9D42B8BF3A
:1046F0001D46B5F57A7FA8BF4FF47A7540F6C4130E
:104700004FF47A705A43ACEB060392FBF0F22A4462
:10471000534393FBF0F33344B342A8BF334663459E
:10472000B8BF634618460DE00029D7D0E369042BD3
:1047300010DD053BB342A8BF33466345B8BF6346AF
:1047400018460025844502D0864218BF2561E061E5
:104750006765F0BD00252846F4E700BF8C090020FE
:1047600040420F0018FCFFFF38B50F4CD4F8203141
:10477000B4F9F420D4F824110546FFF773FF81B291
:104780000A4800F0ABFC0A4800F0A5FCB4F9283058
:10479000B4F9F420043B934205DCAB791BB92368E0
:1047A000AB800123AB7138BD700500208C0900205F
:1047B00074090020F0B504468A1A4448216DB0F807
:1047C00006C0068901F10A0001310929C8BF00218C
:1047D00044F820200027216504F1500004F128014D
:1047E00051F8045B88422F44FAD1002A4FF00A01A5
:1047F000257D97FBF1F747DB3549B1F94210642974
:1048000047DC4FF67E7011FB00F0322190FBF1F097
:1048100000F5BE7085B1256A4FF47A7EAD1BA6EB1C
:104820000C010EFB05F595FBF1F540F6C411514363
:1048300091FBFEF16D1AA56100212175504358438B
:10484000A369244D90FBF5F51D44234B9D42B8BF51
:104850001D46B5F57A7FA8BF4FF47A7540F6C413AC
:104860004FF47A705A4392FBF0F35A19A6EB0C03FB
:10487000534393FBF0F33344B342A8BF334663453D
:10488000B8BF6346184613E012F11D0F03DB322058
:10489000C0E77820BEE79DB1236A042B12DD053BFB
:1048A000B342A8BF33466345B8BF634618460025E8
:1048B000844502D0864218BFA561C4E90807F0BD4F
:1048C0003220BBE700252846F2E700BF740900202C
:1048D0007005002040420F0018FCFFFF10B5044691
:1048E000094800F0F8FB09492046D1F82031B1F918
:1048F000F420D1F82411FFF75DFFBDE8104081B22C
:10490000034800F0EBBB00BF8C09002070050020BD
:10491000740900200148FFF709BE00BF3C080020D1
:1049200010B5064B024603F1140153F8044B42F84C
:10493000044B8B42F9D11B78137010BD16E70008A9
:104940004FF46173038170472349D1F8F0208C3212
:1049500038B58280214A0023128982620446B1F967
:1049600042208371C0F8883043610362B1F92800A6
:10497000811AA161121A40F20111A183E26204F1CD
:10498000300104F1580041F8043B88428A62FAD1B0
:104990002569002D0EDB2189294489B21048FCF7D6
:1049A000CEFE0F48FCF76EFF002320812361A37227
:1049B000E36038BD0A48FCF763FF6D42ADB2854243
:1049C00007D2216981EAE173A3EBE1732189C91A56
:1049D000E3E74FF49671E1E77005002074090020C9
:1049E000D8020020154B0360154B164A1B89436201
:1049F000154BD2F8F0201B89836264320023828039
:104A000083718365C0F8843000F1300200F15801F1
:104A100042F8043B8A429362FAD14FF461720281F8
:104A200040F20112C0E90333C0E905338372828387
:104A30000362C362C0F88830704700BF90EF00087F
:104A40008C09002070050020740900202DE9F04138
:104A5000554E5649B6F82880748CB6F92470054630
:104A6000534808F076FD0A22B6F92210504808F0A3
:104A7000CAFDA4EB08044F494D4808F06AFD24B272
:104A8000B6F928104A480A2208F0BDFD3C2C4EDC3D
:104A9000A7EB08031BB213F13C0F07DAE043282C05
:104AA0004FEAD07008DD0123194643E0282C43DC8F
:104AB00013F1280F07DA0020E143142C4FEAD171DB
:104AC00008DD012336E0142C3ADC13F10F0F08DA6D
:104AD00000210846E3430A2C4FEAD37309DD012283
:104AE00009E00A2C2FDC0A334FF000031946184660
:104AF00020DAE243D20FB6F92260142E03DD30B380
:104B00006FF063032B612C49294808F022FD2969C5
:104B100027480A2208F081FD2849254808F019FD98
:104B2000E9682348BDE8F0410A2208F076BD012378
:104B3000194618461A46DEE7012319460020F9E710
:104B400001230021FAE7002319461846C7E711B1EF
:104B50006FF00903D6E7E96840F28A2081420ADD56
:104B6000B1F57A7FCCDC13B1B1F5487FC8DC192CE4
:104B7000C6DC0023C6E740F226208142F9DCB1F50D
:104B8000E17F02DD62B91923BCE7B1F5AF7F02DD39
:104B900032B93223B6E7FA2902DD0AB94B23B1E76D
:104BA000002BB0D16423ADE77005002044EF00086E
:104BB0001811002052EF00086AEF000871EF00089A
:104BC000FFF744BFF0B504468A1A3B48A16DB0F820
:104BD00006C0068901F10C0001F101014CBFC82596
:104BE00032250929C8BF002144F820200027A165EB
:104BF00004F1580004F1300151F804EB8842774485
:104C0000FAD1132A4FF00A0197FBF1F7617F39DCE3
:104C100081B1606A4FF47A7E801BACEB06010EFB1B
:104C200000F090FBF1F040F6C411514391FBFEF10E
:104C3000401A60610021617755436B431F4D93FB20
:104C4000F5F563691D441E4B9D42B8BF1D46B5F581
:104C50007A7FA8BF4FF47A7540F6C4134FF47A7088
:104C60005A43ACEB060392FBF0F22A44534393FB06
:104C7000F0F33344B342A8BF33466345B8BF63463D
:104C800018460DE00029D7D0636A042B10DD053BE0
:104C9000B342A8BF33466345B8BF634618460025F4
:104CA000844502D0864218BF65616062A761F0BD8D
:104CB00000252846F4E700BF8C09002040420F0081
:104CC00018FCFFFF38B5244C0023B4F9F420D4F8C5
:104CD00024110377D4F820310546FFF773FF81B222
:104CE0001E4800F051F91E4800F0F5F9B4F92830DB
:104CF000B4F9F420133B01209342287723460BDCC0
:104D0000A97949B9B4F94410A871511A64224A43E7
:104D1000216892FBF1F2EA60D3F8F810D5F8882008
:104D20008A4202DAC5F8881038BDB3F95800424308
:104D3000642092FBF0F28A42F6DD1A68B3F95C0057
:104D40000A2190FBF1F000B20025C1179042A94161
:104D5000B8BFC3F8F020E7E7700500208C090020F9
:104D6000740900208A1AD0F88410F0B504463C4D2E
:104D700000EB810001310929C8BF0021B5F806C048
:104D80002E89C2650027C4F8841004F1840004F160
:104D90005C0151F8045B88422F44FAD1002A4FF09D
:104DA0000A01257F97FBF1F74DDB2E49B1F942103F
:104DB00064294DDC4FF67E7011FB00F0322190FB30
:104DC000F1F000F5BE7085B1A56A4FF47A7EAD1B97
:104DD000A6EB0C010EFB05F595FBF1F540F6C411B1
:104DE000514391FBFEF16D1A256200212177216A62
:104DF000504343431C4893FBF0F30B441B498B4245
:104E0000B8BF0B46B3F57A7FA8BF4FF47A7340F66C
:104E1000C41042434FF47A7192FBF1F0C218A6EB32
:104E20000C00504390FBF1F03044B042A8BF304634
:104E30006045B8BF6046844502D0864218BF2362F1
:104E4000C4E90A07F0BD12F11D0F03DB3220BAE7F7
:104E50007820B8E70DB93220C9E700231846EAE701
:104E6000740900207005002040420F0018FCFFFF6D
:104E700010B51B4CD4F82031B4F9F420D4F8241127
:104E8000FFF770FF81B2174800F07EF8164800F077
:104E900022F9B4F9283104F594710A2231F9020B90
:104EA000013A8342B8BF034612F0FF02F6D1D4F8AC
:104EB000F020216832328A4210D2B4F94820B4F985
:104EC000F4109B1A994203DAB4F92230642B02DC05
:104ED0005242914202DA012384F84C3010BD00BFE7
:104EE00070050020740900208C0900200148FFF79C
:104EF00079BD00BFC008002000220260704710B5D5
:104F00000446362007F024FC00F00AF82368C01A93
:104F100010BD0000014B00221A6070474C090020B0
:104F20000B4A1168401A0028D4BF6FF00303042312
:104F30001844052390FBF3F040F6BE0308441060CC
:104F4000584342F2107390FBF3F02D3800B27047D3
:104F50005009002070B5BDF81050BDF81460C38230
:104F6000AE42334628BF2B46C380B5424FF6FF738F
:104F70004581438038BF35460023016182828681A6
:104F800005810680838070BDF0B5C488274E85B04A
:104F9000A1428CBF0DF1060303ABADF80C40ADF898
:104FA00006101A880189ADF80E108A4288BF0DF1EB
:104FB0000E030A251B8883804B225A437D23B2FBB4
:104FC000F3F26A4302F596724C2302FB02FC534350
:104FD00040F2D937B3FBF5F3A3F2744307FB0CF7A8
:104FE000B7FBF6F72C26DB1B06FB0CF64FF47A77A3
:104FF000B6FBF7F6724342F21076B2FBF6F21344B8
:10500000B3FBF5F39BB29C42038034BF034603AB72
:10501000ADF80C401A88ADF80E108A4288BF0DF129
:105020000E031B880380184605B0F0BDA086010062
:1050300070B5002386B099420493CCBF01AB04AB9A
:105040000191196840F6F6429142C8BF05AB05923E
:105050001A68B2F5F56F17DA4FF49F7353431A4A83
:1050600093FBF2F36233C28803939A42B4BF03AB5B
:1050700004AB04921968028905928A42B8BF05AB55
:105080001B68038006B070BD242353436FF00901F1
:1050900093FBF1F3A82103F6422302FB02F46425FB
:1050A0004FF47A76B4FBF5F46143B1FBF6F10B44AF
:1050B0004FF484716243B2FBF5F24A43034992FB19
:1050C000F1F21344CFE700BFF0D8FFFF6079FEFF95
:1050D000438903807047838903807047018070474C
:1050E00070B5ADF5007D0D4604460C491646684680
:1050F0004FF4007208F0A6FB2E4429462046B14228
:1051000009D011F8013B83EA10233DF8133083EAFC
:10511000002080B2F3E70DF5007D70BD2CE700089C
:10512000064A074B11781970517859709178D278E6
:10513000DA70044A997012781A71704718000020CA
:10514000560900201C000020F8B5164A164C1578A8
:105150005278A271154A16481278E271EE1D6571F7
:1051600004F108010022EF1E974205DD10F8013B13
:1051700001F8013B0132F7E7B21E0B4992B2002061
:10518000FFF7AEFF0B4B0849C2B2C0F307201A70FD
:10519000587063195A71987132460748BDE8F84053
:1051A00008F0B4B96B090020560900206A090020F4
:1051B0006D09002054090020D009002038B50F4B9C
:1051C0000F4C104903221A700B232370002305464D
:1051D0006370FAF7E5FF08B91023A3700A4928465F
:1051E000FAF7DEFF08B90323A370084B06221A70F2
:1051F00000225A70BDE83840FFF7A6BF6A090020B8
:105200006D090020A8EF0008ACEF00086B09002032
:105210000A4B03221A700A4B010E74225971010CB9
:105220001A7019710022010A5A70D9709870054BD2
:10523000092119705A70FFF787BF00BF6A09002063
:105240006D0900206B090020028810B50446C08853
:10525000824211D22080638822889A420BD0228910
:10526000121A534340F6FF7293FBF2F31844FFF710
:10527000CFFF2388638010BD23899A4288BF238093
:10528000E9E70000074B03221A70074B41221A700E
:1052900000225A709870054B062119705A70FFF75A
:1052A00053BF00BF6A0900206D0900206B09002070
:1052B000074B03221A70074B40221A7000225A70C3
:1052C0009870054B062119705A70FFF73DBF00BF5B
:1052D0006A0900206D0900206B09002008B5054807
:1052E000FFF76CFF0120FFF7CDFFBDE8084001206C
:1052F000FFF7DEBFACEF0008017910B5044639B9FD
:105300000368013B002B036001DC0123237110BD06
:10531000012904D11F2007F08BFA0223F6E70229A6
:10532000F5D100211F2007F083FA3C2323600323DB
:10533000ECE70379032B04BF002303713C230360D4
:105340007047042303717047024B00221A713C22FC
:105350001A607047A409002010B50D4C00232046A8
:105360000422142102F0D8FF00221146204602F048
:10537000B5FF0849204608F0ECF82046002101223C
:1053800002F0ACFF20460449BDE8104008F0E1B847
:10539000B4090020B0EF000860EE0008014802F0F8
:1053A00083BF00BFB409002030B50B4D8BB0002285
:1053B000044603912846114602F090FF039B074ADA
:1053C0000094152104A808F02FFB04A9284608F032
:1053D000C0F80BB030BD00BFB4090020C5EF000815
:1053E000014B01221A707047AC0900202DE9F041F1
:1053F0002E4B1A7886B004466AB100221A7041BB5F
:105400002B48022202F06AFF2A49294808F0A1F835
:1054100006B0BDE8F081284B042918780A4628BF59
:105420000422904202EB040509D1244E2046A842F2
:10543000EED010F801CB16F8017BBC45F7D01A70FE
:105440001E4A23469D42DAD013F8010B02F8010BE5
:10545000F8E71B4EDFF86C803068B2880090ADF83A
:105460000420042994BF6718271D062514F8013B62
:105470004246C5F115010DEB050008F0D5FAC5F15E
:105480001403834202DBBC420544EFD1C5F1140290
:1054900071190DEB050008F003FB002104488DF89D
:1054A0001410022202F01AFF6946AEE7AC09002090
:1054B000B4090020D8EF00081D000020AD0900202D
:1054C000EDEF000802F0000870B51B4C8CB00546EB
:1054D0000E46FFF763FF00221146204602F0FEFE53
:1054E0001649684608F0D4FA6946204608F031F8B3
:1054F00020460122002102F0F1FE731B104A152103
:1055000006A808F091FA06A9204608F022F802221F
:105510002046002102F0E2FE0A49204608F019F870
:1055200003222046002102F0D9FE0749204608F058
:1055300010F80CB070BD00BFB409002006F00008E0
:105540001BF000082EF0000841F0000810B50F4CC9
:1055500000221146204602F0C1FE0D49204607F008
:10556000F8FF02222046002102F0B8FE0949204639
:1055700007F0EFFF20460021032202F0AFFE204695
:105580000549BDE8104007F0E4BF00BFB4090020A2
:105590004DF0000859F0000869F0000808B504480B
:1055A00002F082FEBDE808400249014807F0D1BF81
:1055B000B409002073F0000810B5104C204602F02A
:1055C00073FE00221146204602F088FE0C49204658
:1055D00007F0BFFF02222046002102F07FFE0949AA
:1055E000204607F0B6FF20460021032202F076FE97
:1055F00020460549BDE8104007F0ABBFB4090020C4
:1056000081F0000896F00008A8F0000810B5104CD2
:10561000204602F049FE00221146204602F05EFEBE
:105620000C49204607F095FF02222046002102F097
:1056300055FE0949204607F08CFF20460021032231
:1056400002F04CFE20460549BDE8104007F081BF3E
:10565000B4090020B8F00008C9F00008D7F000082D
:1056600008B505480021032202F038FEBDE80840D5
:105670000249014807F06DBFB4090020E7F00008B7
:1056800002460A21B0FBF1F398B201FB13239BB24F
:10569000042B84BF013080B270470000F0B5114F79
:1056A0008BB006460C46154600210122384602F012
:1056B00015FE3046FFF7E4FF03902046FFF7E0FFBA
:1056C00004462846FFF7DCFF039B074ACDE900406C
:1056D000152104A808F0A8F904A9384607F039FFF5
:1056E0000BB0F0BDB4090020FCF0000870B5144602
:1056F0008AB0032206460D461448002102F0EEFD52
:105700003046FFF7BDFF03902046FFF7B9FF4FF685
:10571000FF729542039B04460BD100900C4A152161
:1057200004A808F081F904A9084807F012FF0AB09C
:1057300070BD28460393FFF7A3FF039B054ACDE9FD
:105740000004152104A808F06FF9ECE7B409002063
:1057500014F100082BF100081FB53B233C22CDE9D2
:10576000023206210923CDE9003111220D23072140
:10577000024802F0A5FE05B05DF804FBB409002064
:10578000437802781B0403EB02638278C07803EB52
:1057900002231844704700002DE9F04F85B007F050
:1057A000A5F8BD4EDFF82093BC4D804607F09EF86B
:1057B00008F102038342C0F06B81B74807F0B9F8E3
:1057C0000A2840F36581304607F0BBF8052840F011
:1057D0005A81304607F026FA304607F0B2F80A2818
:1057E000074640F05081304607F01CFA02A806F048
:1057F0002FFF304607F016FA0DF103018DF8030074
:1058000002A806F029FF022201A9304607F03DFF59
:1058100001A902A806F020FF0DF1050102A806F07B
:105820001BFF042203A930469DF804B09DF80540F3
:1058300007F02BFF03A8FFF7A3FF8246304607F0CF
:10584000F1F950280BD1304607F0ECF9A02806D129
:1058500002A806F01BFF504506D0914900E091498F
:10586000284607F085FEA1E78F49284607F071FE1C
:1058700004EB0B243A469DF80310284607F0E4FE9B
:10588000A4B28A49284607F064FE3A4621462846D3
:1058900007F0B7FE284607F063FE9DF803301F2B84
:1058A00000F2E38001A252F823F000BF2D59000856
:1058B000435900084D59000857590008615900081C
:1058C0006B590008755900087F590008895900086C
:1058D000935900089B590008A5590008AF590008C2
:1058E000B9590008C3590008CD590008D759000814
:1058F000E1590008EB590008F5590008FF59000864
:10590000095A0008135A00081D5A0008275A0008AF
:10591000315A00083B5A0008AD570008455A0008A4
:105920004F5A0008595A0008635A00084AF6AA2339
:105930009C425F4802D1FFF704FD37E7FFF7F9FC0F
:1059400034E75C482146FDF7AAFF2FE7594821B20A
:10595000FDF7D7FF2AE7574821B2FDF7BFFF25E73C
:1059600054482146FDF7ACFF20E752482146FDF799
:10597000DCFF1BE74F482146FDF7E8FF16E74D48DF
:105980002146FDF7EEFF11E74B482146FBF75EF994
:105990000CE74A48FBF770FA08E746482146FDF74E
:1059A000E8FF03E743482146FDF7ECFFFEE64148E8
:1059B0002146FDF7F0FFF9E63E482146FDF7F9FFE5
:1059C000F4E63C482146FEF700F8EFE63948214668
:1059D000FEF70CF8EAE637482146FEF719F8E5E647
:1059E00034482146FEF725F8E0E632482146FEF726
:1059F00032F8DBE62F482146FEF737F8D6E62D4889
:105A00002146FEF73DF8D1E62A482146FEF746F842
:105A1000CCE628482146FEF74BF8C7E62548214644
:105A2000FEF754F8C2E623482146FEF759F8BDE6D2
:105A300020482146FEF766F8B8E61E482146FEF7E4
:105A400079F8B3E61B4821B2FEF7D8F8AEE619485C
:105A500021B2FEF7E7F8A9E6164821B2FEF776F87C
:105A6000A4E61748FCF7C0FFA0E61649284607F051
:105A700070FD9DF803100A22284607F0E5FD284630
:105A800007F06EFD92E6304607F0CCF84946E7E6AF
:105A900005B0BDE8F08F00BFD0090020181100202C
:105AA00080F1000843F10008BAF10008DDF10008B8
:105AB000A409002070050020DC000020E400002084
:105AC000D8030020E8F1000802F200082DE9F041B7
:105AD0000622E6B084484FF4E13107F053F88349D9
